:00300002CE
:003040028E
:003080024E
:0030C0020E
:00310002CD
:003140028D
:003180024D
:0031C0020D
:00320002CC
:003240028C
:003280024C
:0032C0020C
:00330002CB
:003340028B
:003380024B
:0033C0020B
:00340002CA
:003440028A
:003480024A
:0034C0020A
:00350002C9
:0035400289
:0035800249
:0035C00209
:00360002C8
:0036400288
:0036800248
:0036C00208
:00370002C7
:0037400287
:0037800247
:0037C00207
:00380002C6
:0038400286
:0038800246
:0038C00206
:00390002C5
:0039400285
:0039800245
:0039C00205
:003A0002C4
:003A400284
:003A800244
:003AC00204
:003B0002C3
:003B400283
:003B800243
:003BC00203
:003C0002C2
:003C400282
:003C800242
:003CC00202
:003D0002C1
:003D400281
:003D800241
:003DC00201
:003E0002C0
:003E400280
:003E800240
:003EC00200
:003F0002BF
:083000008134A5340A34503478
:08300800441840340034003488
:0830100084180434003400347C
:08301800881810340034003464
:08302000981815340034003447
:08302800AD18973400340034A8
:0830300044193B340134003463
:083038007F1A853402340034D4
:08304000041DC3340134003407
:08304800C71E2C3400340034D3
:08305000F31E9E34003400342D
:08305800FF3FFF3FFF3FFF3F78
:08306000FF3FFF3FFF3FFF3F70
:08306800FF3FFF3FFF3FFF3F68
:08307000FF3FFF3FFF3FFF3F60
:08307800FF3FFF3FFF3FFF3F58
:08308000FF3FFF3FFF3FFF3F50
:083088000434003400347034FC
:08309000043401340034313432
:0830980004340034003432342A
:0830A00004342434F4348034BC
:0830A8000434EE340234063456
:0830B00004343034753405349A
:0830B800043420344E340034CE
:0830C000043420344E340234C4
:0830C80004340A34003403341F
:0830D0000134C03477340734E9
:0830D8000134C434073407344D
:0830E0000434F3340034083419
:0830E8001234073408340834E7
:0830F0000D34023400340834F1
:0830F8000834023400340434F2
:0831000000340334083450349C
:0831080004340134003450349A
:08311000043416340034C0340D
:0831180004340A34003477345A
:083120000434043400341834B7
:08312800043403340034503478
:083130000434F33400340734C9
:083138000134C034773408347F
:0831400002340734083408349E
:0831480003340834C4340334DD
:0831500018340834033408347C
:083158005034033460340134EB
:0831600003346134043404342B
:0831680000340034703404341B
:08317000003400347134043412
:08317800003400347234043409
:08318000003400347334043400
:0831880000340034303404343B
:08319000003400343234043431
:08319800003400343334043428
:0831A00000340034343404341F
:0831A80000340034203404342B
:0831B000003400342134043422
:0831B800003400342234043419
:0831C000003400342334043410
:0831C8000034003451340434DA
:0831D0000034003477340434AC
:0831D80020344E3400340434AD
:0831E00020344E3402340434A3
:0831E800303475340534043461
:0831F0000434003418340434E7
:0831F8000034003407341234E6
:083200000634073407340434DE
:083208003034753405340D3437
:083210000234003407340734D6
:083218000934003405340034D0
:083220000434003400340834CA
:083228001234063408340834A6
:083230000434EE3402340934C9
:083238000C34023400340834A8
:0832400006340634093404349D
:0832480005340034083412348F
:0832500007340834083404348B
:083258000134003409340C3488
:0832600002340034083470341C
:08326800703409340434013410
:08327000003409340C3402346F
:08327800003408343234323412
:08328000093403340734503413
:08328800043400340034073463
:08329000043401340034093458
:083298001234513409340934E9
:0832A00004343C3400340A340C
:0832A800083464340A340A34CE
:0832B0000434003400340B3437
:0832B8000434283400340C3406
:0832C00002340B340C340C3411
:0832C800093460340C340C34AD
:0832D0000F340A340C340C34F5
:0832D8000434323400340A34DE
:0832E000083460340A340A349A
:0832E8000F340C340A340A34DF
:0832F0000E3409340A340A34DB
:0832F8000434003400340934F1
:08330000123451340934093480
:0833080004343C3400340B34A2
:08331000083465340B340B3462
:083318000434003400340C34CD
:083320000434283400340D349C
:0833280002340C340D340D34A5
:08333000093461340D340D3441
:083338000F340B340D340D3489
:083340000434323400340B3474
:08334800083461340B340B342E
:083350000F340D340B340B3473
:083358000E3409340B340B3470
:08336000043400340034093488
:08336800123451340934093418
:0833700010340B340C340E3450
:0833780009340C340C34043458
:083380000034003409340C3460
:08338800023400340C34073458
:08339000073409340C34023447
:0833980000340C340834083441
:0833A0006134043401340034EF
:0833A8000934123451340934D8
:0833B000093410340A340C3416
:0833B8000E3409340C340C340E
:0833C0000434763400340934B2
:0833C8000C34023400340C3413
:0833D0000734073409340C3402
:0833D800023400340C34083407
:0833E0000834603404340234A7
:0833E8000034093412345134A1
:0833F000093409340434EC3403
:0833F80000340C340C340234E3
:083400000034093407340734DD
:083408000C340C3402340034D2
:08341000093408340834C0340B
:083418000434033400340934CC
:0834200012345134093409345F
:083428000434EC3400340C34D0
:083430000C34023400340934AD
:08343800073407340C340C3496
:083440000234003409340834A1
:08344800083419340434043483
:08345000003409341234513438
:08345800093409340434003486
:0834600000340C340C3402347A
:08346800003409340734073475
:083470000C340C34023400346A
:08347800093408340834033460
:08348000033407342034053445
:08348800083415340F340A3436
:083490000B3407340334073448
:08349800093404349E340034B1
:0834A0000C340C34023400343A
:0834A8000934153415340C340D
:0834B00004340A3400340C342A
:0834B8000C3402340034093425
:0834C000163416340C340434F8
:0834C8000A3400340C340C340A
:0834D000023400340934173402
:0834D80017340C3403341534E1
:0834E0002134033416342234B8
:0834E8000334173423340434CB
:0834F0000634003418340434E2
:0834F8000934003450340234A1
:08350000603401340934043485
:08350800053400340A340834D4
:0835100009340A340A340234C4
:0835180001346034093404346D
:08352000053400340B340834BB
:0835280009340B340B340F349D
:083530000A340B340B340334A0
:083538000B3409340C34023499
:0835400000340934073407349C
:08354800013410340B34093486
:083550000C340234003409348C
:083558000734073460340C3421
:08356000023400340934013487
:083568000134603402346134C7
:0835700004340934043405346D
:0835780000340A340834093460
:083580000A340A340234043459
:083588006134093404340534F8
:0835900000340C340834093446
:083598000C340C340F340A342A
:0835A0000C340C3403340C342C
:0835A80009340C340234003434
:0835B000093408340834043426
:0835B80010340C3409340C340A
:0835C000023400340934083420
:0835C800083461340C340234B4
:0835D000003409340434043412
:0835D800613404343C3400347A
:0835E000093408346434093495
:0835E8000934043400340034FE
:0835F0000A34043428340034CD
:0835F8000B3402340A340B34D9
:083600000B34093407340B34CC
:083608000B340F3409340B34BC
:083610000B34043432340034A1
:083618000934083407340934B9
:0836200009340F340B340934A6
:083628000934043418340034A5
:083630000A340C3402340034AA
:083638000934073407340A3499
:0836400004343C340034093469
:0836480008346534093409342B
:083650000434003400340A3494
:083658000434283400340B3463
:0836600002340A340B340B3470
:08366800093408340B340B3463
:083670000F3409340B340B3454
:0836780004343234003409343B
:08368000083408340934093450
:083688000F340B34093409343E
:083690000434183400340A343C
:083698000C3402340034093443
:0836A000083408340A34033435
:0836A800C0340934033471340D
:0836B0000A340434053400342F
:0836B8000B340A3407340B3413
:0836C0000B340834083409340E
:0836C8000C340E340C340B34F9
:0836D0000D3403340D340E34F7
:0836D8000434013400340F3406
:0836E0000C34023400340E34F6
:0836E8000A340A340F341034D7
:0836F0000D340E3404340034E3
:0836F80000340F340C340234DD
:0837000000340E340A340A34CF
:083708000F3410340A340B34B5
:08371000043420344E340C3463
:083718000C34023400340B34C0
:08372000003400340C340434C1
:0837280020344E340C340C3443
:08373000023400340B340234B2
:0837380002340C340434303477
:0837400075340C340C34023422
:0837480000340B340534053494
:083750000C3404340034003491
:083758000B34083402340B3479
:083760000B340434E23404349C
:083768000C340B3402340C3464
:083770000C340E340B340C3450
:083778000C3404340034003469
:083780000B34083400340B3453
:083788000B3404344C341D34F1
:083790000D340B3400340D343C
:083798000D340E340B340D3426
:0837A0000D340434E23404345A
:0837A8000B340B3402340B3426
:0837B0000B3404340034003432
:0837B8000E340C34023400341D
:0837C0000B340A340A340E3404
:0837C80003340A340B340F3402
:0837D0000C340D340E341034EA
:0837D8000E340E340C340234EF
:0837E00000340E340F340F34E5
:0837E8000B340E340E340B34D7
:0837F0000F34043400340034EE
:0837F8001034123405341034C2
:0838000010340E340F341034B3
:08380800103404344C341D346B
:0838100011340B3400341134B3
:0838180011340E341034113498
:0838200011340C3402340034B1
:0838280011341234123475341E
:083830000E341134753412341A
:08383800043420344E34133433
:083840000C3402340034123490
:08384800003400341334043491
:0838500020344E3413340C3413
:08385800023400341234023482
:083860000234133410347534F6
:0838680012340E341134123445
:0838700012340434003400346A
:0838780013340C340234003457
:0838800012340A340A34133437
:083888000434E234043413346B
:083890000C3402340034123440
:0838980002340234133404343D
:0838A0004C341D3411340834CE
:0838A8000034113411340E3418
:0838B00010341134113404340A
:0838B8004C341D3412340C34B1
:0838C00002340034113400341D
:0838C8000034123404342034F2
:0838D0004E3412340C340234B2
:0838D800003411340234023403
:0838E0001234043400340034FA
:0838E8001034083405341034DB
:0838F00010340E340F341034C3
:0838F8001034043400340034E4
:0839000011340C3402340034D0
:0839080010340A340A341134B2
:0839100010340B340F340E34A7
:083918000E340F340F340434A7
:083920000034003410341234AD
:083928000234103410340E3497
:083930000F341034103404348C
:083938000134003411340C3499
:083940000234003410340A3493
:083948000A34113404344C343C
:083950001D3411340C34023463
:08395800003410340034003487
:0839600011340434003400347A
:0839680011340C340234003468
:08397000103405340534113454
:08397800043400340034103463
:0839800012340234103410343B
:083988001034103410340E3429
:083990000F341034103404342C
:0839980020344E3411340C34CC
:0839A00002340034103400343D
:0839A800003411340434303402
:0839B000753411340C340234AB
:0839B80000341034053405341D
:0839C0001134043420344E34AC
:0839C80010340C340234003409
:0839D0000F34023402341034FC
:0839D8000D34023400340A34FE
:0839E0003334003400340134DB
:0839E800003403340A34713489
:0839F000043400340034723489
:0839F800043400340034733480
:083A0000043407340034503493
:083A08000434033400340834D7
:083A100012345134083408346B
:083A18001034083408340C34AA
:083A20000234003408341934AB
:083A28001934C0341034483495
:083A3000083403344134093469
:083A3800033440340A34033466
:083A400051340B34043400344E
:083A480000340C341234513437
:083A50000C340C340434013481
:083A580000340D341234513426
:083A60000D340D34043402346E
:083A680000340E341234513415
:083A70000E340E34043403345B
:083A780000340F341234513404
:083A80000F340F340434043448
:083A88000034103412345134F3
:083A9000103410340E344634EA
:083A98004734113404340034FA
:083AA000003412340C3402342E
:083AA800003411340A340A3421
:083AB000123404340034003428
:083AB80012340C340234003416
:083AC0001134093409341234F9
:083AC8000E340C3408341134F3
:083AD0000E34113409341234E4
:083AD8000434023400341334FD
:083AE0000C34023400341234EE
:083AE8000B340B3413340E34CF
:083AF00011340A3412340434CD
:083AF8000134003413340C34D6
:083B00000234003412340B34CE
:083B08000B3413340E340D34AC
:083B1000083412340E341234A3
:083B18000A34113404340234B4
:083B2000003413340C340234AC
:083B2800003411340B340B349E
:083B300013340E341234093481
:083B38001134043400340034A0
:083B400013340C34023400348C
:083B480011340B340B3413346B
:083B50000E340E340834113468
:083B58000E3411340A3412345A
:083B6000043400340034133476
:083B68000C3402340034123465
:083B70000B340B3413340E3446
:083B7800113409341234043445
:083B80000134003413340C344D
:083B88000234003412340B3446
:083B90000B3413341034083427
:083B980012340E340E34123415
:083BA00008340434033400343E
:083BA80013340C340234003424
:083BB00008340B340B3413340C
:083BB8000E340C341234083401
:083BC000043404340034133412
:083BC8000C340234003408340F
:083BD0000B340B3413340E34E6
:083BD8000F34123408340334E9
:083BE000193411340E340834CD
:083BE8000A34133404341E34C6
:083BF0000034143409341134CF
:083BF800143414340E341334AC
:083C00001434143404340134BF
:083C08000034133401341134BF
:083C1000133413340C340234A8
:083C180000341434113411349E
:083C200013340E34083409349A
:083C2800133404340A340034A3
:083C300014340834113414347B
:083C380014340E34133414346B
:083C4000143404340134003493
:083C480013340234113413346B
:083C500013340C34023400347B
:083C580014341134113413344B
:083C60001034123413340E3449
:083C68000F341334133404344B
:083C70000234003414340C345A
:083C78000234003413340B3454
:083C80000B3414340334113439
:083C880019340E34103412341B
:083C900011340334033408343D
:083C98000E3411340A34133418
:083CA00004340A34003414342A
:083CA80009340834143414340B
:083CB0000E34133414341434F3
:083CB80004340134003413341C
:083CC0000134083413341334FD
:083CC8000C3402340034143402
:083CD0000834083413340E34EB
:083CD8001134093413340434E3
:083CE0000534003414340834EB
:083CE8000834143414340E34C6
:083CF0001334143414340434BD
:083CF8000134003413340234DE
:083D00000834133413340C34B1
:083D08000234003414340834C5
:083D10000834133403340834B5
:083D18000334103412340834A6
:083D20000E341034083408349D
:083D28000434003400341334AC
:083D30000C34023400340834A5
:083D38000B340B341334033487
:083D40000B3451340434083443
:083D4800003408340434003497
:083D500000340934123406347A
:083D5800093409340434EE348F
:083D600002340A340C34023471
:083D680000340934063406346E
:083D70000A3404340434003469
:083D78000A340C34023400345B
:083D80000934083408340A3448
:083D8800033408345034043404
:083D900003340034083412343E
:083D98005134083408341034E2
:083DA000083408340C3402342D
:083DA80000340834C034C034BB
:083DB00019340434043400341A
:083DB8000834123451340834C0
:083DC000083410340834083403
:083DC8000C340234003408340D
:083DD000773477340334043426
:083DD8000534003418340434F2
:083DE0000334003450340434B4
:083DE8002434F43408340234E1
:083DF000083480340934033467
:083DF800083480341034463415
:083E00000834103447340A3481
:083E08000F3408340A340A34B7
:083E10000434EE3402340834DE
:083E18000C34023400340A34BA
:083E20000634063408340834AE
:083E28000934063408340434A7
:083E3000003400340A340C34A4
:083E38000234003408340634A2
:083E400006340A340B34093486
:083E480006340834023406348C
:083E500009340A340C34023479
:083E580000340834063406347E
:083E60000A340834093402346D
:083E6800083404340034003476
:083E70000A340C340234003462
:083E78000834023402340A345C
:083E80000B340934023408344C
:083E88000234023409340A344B
:083E90000C3402340034083444
:083E9800023402340A3408343C
:083EA000093400340834043435
:083EA800003400340A340C342C
:083EB000023400340834003430
:083EB80000340A340B34093414
:083EC000003408340234003420
:083EC80009340A340C34023401
:083ED000003408340034003412
:083ED8000A34083409340534F2
:083EE0000834043400340034FE
:083EE8000A340C3402340034EA
:083EF0000834053405340A34DE
:083EF8000B34093405340834D1
:083F00000234053409340A34CF
:083F08000C34023400340834CB
:083F1000053405340A340334C2
:083F18001834083403340834A6
:083F20005034FF3FFF3FFF3F5B
:00000001FF
