:00300002CE
:003040028E
:003080024E
:0030C0020E
:00310002CD
:003140028D
:003180024D
:0031C0020D
:00320002CC
:003240028C
:003280024C
:0032C0020C
:00330002CB
:003340028B
:003380024B
:0033C0020B
:00340002CA
:003440028A
:003480024A
:0034C0020A
:00350002C9
:0035400289
:0035800249
:0035C00209
:00360002C8
:0036400288
:0036800248
:0036C00208
:00370002C7
:0037400287
:0037800247
:0037C00207
:00380002C6
:0038400286
:0038800246
:0038C00206
:00390002C5
:0039400285
:0039800245
:0039C00205
:003A0002C4
:003A400284
:003A800244
:003AC00204
:003B0002C3
:003B400283
:003B800243
:003BC00203
:003C0002C2
:003C400282
:003C800242
:003CC00202
:003D0002C1
:003D400281
:003D800241
:003DC00201
:003E0002C0
:003E400280
:003E800240
:003EC00200
:003F0002BF
:003F40027F
:003F80023F
:003FC002FF
:00400002BE
:083000008134A5340A34503478
:08300800441840340034003488
:0830100084180434003400347C
:08301800881810340034003464
:08302000981815340034003447
:08302800AD18933400340034AC
:0830300040193B340134003467
:083038007B1A24340334003438
:083040009F1DC334013400346C
:08304800621F2C340034003437
:083050008E1F9E340034003491
:08305800FF3FFF3FFF3FFF3F78
:08306000FF3FFF3FFF3FFF3F70
:08306800FF3FFF3FFF3FFF3F68
:08307000FF3FFF3FFF3FFF3F60
:08307800FF3FFF3FFF3FFF3F58
:08308000FF3FFF3FFF3FFF3F50
:083088000434003400347034FC
:08309000043401340034313432
:0830980004340034003432342A
:0830A00004342434F4348034BC
:0830A8000434EE340234043458
:0830B00004343034753405349A
:0830B800043420344E340234CC
:0830C000043420344E340134C5
:0830C80004340A34003406341C
:0830D0000134C03477340734E9
:0830D8000134C434073407344D
:0830E0000434F3340034083419
:0830E8001234073408340834E7
:0830F0000D34023400340834F1
:0830F8000834023400340434F2
:0831000000340334083450349C
:0831080004340134003450349A
:08311000043416340034C0340D
:0831180004340A34003477345A
:083120000434043400341834B7
:08312800043403340034503478
:083130000434F33400340734C9
:083138000134C034773408347F
:0831400002340734083408349E
:0831480003340834C4340334DD
:0831500018340834033408347C
:083158005034033460340034EC
:0831600003346134033404342C
:0831680000340034703404341B
:08317000003400347134043412
:08317800003400347234043409
:08318000003400347334043400
:0831880000340034303404343B
:08319000003400343234043431
:08319800003400343334043428
:0831A00000340034343404341F
:0831A80000340034203404342B
:0831B000003400342134043422
:0831B800003400342234043419
:0831C000003400342334043410
:0831C8000034003451340434DA
:0831D0000034003477340434AC
:0831D80020344E3402340434AB
:0831E00020344E3401340434A4
:0831E8000434003418340434EF
:0831F0000034003407341234EE
:0831F8000434073407340434E9
:083200003034753405340D343F
:083208000234003407340734DE
:083210000934003405340034D8
:083218000434003400340834D2
:083220001234043408340834B0
:083228000434EE3402340934D1
:083230000C34023400340834B0
:083238000434043409340434A9
:08324000053400340834123497
:08324800073408340834043493
:083250000134003409340C3490
:08325800023400340834703424
:08326000703409340434013418
:08326800003409340C34023477
:0832700000340834323432341A
:0832780009340334073450341B
:0832800004340034003407346B
:08328800043401340034093460
:083290001234513409340934F1
:0832980004343C3400340A3414
:0832A000083464340A340A34D6
:0832A8000434003400340B343F
:0832B0000434283400340C340E
:0832B80002340B340C340C3419
:0832C000093460340C340C34B5
:0832C8000F340A340C340C34FD
:0832D0000434323400340A34E6
:0832D800083460340A340A34A2
:0832E0000F340C340A340A34E7
:0832E8000E3409340A340A34E3
:0832F0000434003400340934F9
:0832F800123451340934093489
:0833000004343C3400340B34AA
:08330800083465340B340B346A
:083310000434003400340C34D5
:083318000434283400340D34A4
:0833200002340C340D340D34AD
:08332800093461340D340D3449
:083330000F340B340D340D3491
:083338000434323400340B347C
:08334000083461340B340B3436
:083348000F340D340B340B347B
:083350000E3409340B340B3478
:08335800043400340034093490
:08336000123451340934093420
:0833680010340B340C340E3458
:0833700009340C340C34043460
:083378000034003409340C3468
:08338000023400340C34073460
:08338800073409340C3402344F
:0833900000340C340834083449
:083398006134043401340034F7
:0833A0000934123451340934E0
:0833A800093410340A340C341E
:0833B0000E3409340C340C3416
:0833B8000434763400340934BA
:0833C0000C34023400340C341B
:0833C8000734073409340C340A
:0833D000023400340C3408340F
:0833D8000834603404340234AF
:0833E0000034093412345134A9
:0833E800093409340434EC340B
:0833F00000340C340C340234EB
:0833F8000034093407340734E6
:083400000C340C3402340034DA
:08340800093408340834C03413
:083410000434033400340934D4
:08341800123451340934093467
:083420000434EC3400340C34D8
:083428000C34023400340934B5
:08343000073407340C340C349E
:083438000234003409340834A9
:0834400008341934043404348B
:08344800003409341234513440
:0834500009340934043400348E
:0834580000340C340C34023482
:0834600000340934073407347D
:083468000C340C340234003472
:08347000093408340834063465
:0834780003340734203405344D
:08348000083415340F340A343E
:083488000B3407340334073450
:08349000093404349E340034B9
:083498000C340C340234003442
:0834A0000934153415340C3415
:0834A80004340A3400340C3432
:0834B0000C340234003409342D
:0834B800163416340C34043400
:0834C0000A3400340C340C3412
:0834C80002340034093417340A
:0834D00017340C3403341534E9
:0834D8002134033416342234C0
:0834E0000334173423340434D3
:0834E8000634003418340434EA
:0834F0000934003450340234A9
:0834F80060340034093404348F
:08350000053400340A340834DC
:0835080009340A340A340234CC
:08351000003460340934043476
:08351800053400340B340834C3
:0835200009340B340B340F34A5
:083528000A340B340B340334A8
:083530000B3409340C340234A1
:083538000034093407340734A4
:08354000003410340B3409348F
:083548000C3402340034093494
:083550000734073460340C3429
:08355800023400340934003490
:083560000034603402346134D0
:08356800033409340434053476
:0835700000340A340834093468
:083578000A340A340234033462
:08358000613409340434053400
:0835880000340C34083409344E
:083590000C340C340F340A3432
:083598000C340C3403340C3434
:0835A00009340C34023400343C
:0835A80009340834083403342F
:0835B00010340C3409340C3412
:0835B800023400340934083428
:0835C000083461340C340234BC
:0835C80000340934033403341C
:0835D000613404343C34003482
:0835D80009340834643409349D
:0835E000093404340034003406
:0835E8000A34043428340034D5
:0835F0000B3402340A340B34E1
:0835F8000B34093407340B34D5
:083600000B340F3409340B34C4
:083608000B34043432340034A9
:083610000934083407340934C1
:0836180009340F340B340934AE
:083620000934043418340034AD
:083628000A340C3402340034B2
:083630000934073407340A34A1
:0836380004343C340034093471
:08364000083465340934093433
:083648000434003400340A349C
:083650000434283400340B346B
:0836580002340A340B340B3478
:08366000093408340B340B346B
:083668000F3409340B340B345C
:08367000043432340034093443
:08367800083408340934093458
:083680000F340B340934093446
:083688000434183400340A3444
:083690000C340234003409344B
:08369800083408340A3403343D
:0836A000C03409340334713415
:0836A8000A34033472340B34C0
:0836B000033473340C341234AE
:0836B800083409340D3410340C
:0836C0000D340D34043405340F
:0836C80000340E340A3407340B
:0836D0000E340E340D340234F7
:0836D80000340D340A34003403
:0836E000003401340034103401
:0836E8000A340D3404342034CF
:0836F0004E340F340C34023497
:0836F80000340D3402340234E9
:083700000F34043420344E3470
:083708000F340C3402340034CC
:083710000D34013401340F34C3
:083718000434303475340F3421
:083720000C34023400340D34B6
:08372800053405340F340434AC
:08373000003400340D340834AC
:0837380001340D340D3404349A
:08374000E23404340F340B34B1
:0837480001340F340F340E347C
:083750000D340F340F34043472
:08375800003400340D34083484
:0837600002340D340D34043471
:083768004C341D3410340B3405
:083770000234103410340E3451
:083778000D3410341034043448
:08378000E23404340D340B3473
:0837880001340D340D3404344A
:083790000034003411340C3444
:08379800023400340D340A3440
:0837A0000A34113403340A3429
:0837A8000D340F340F3410340E
:0837B0001134103411341134FE
:0837B8000C340234003411341A
:0837C000123412340D340E34F2
:0837C80011340D3412340434F5
:0837D0000034003413341234FC
:0837D8000534133413340E34E0
:0837E0001234133413340434D5
:0837E8004C341D3414340B3481
:0837F0000234143414340E34C9
:0837F8001334143414340C34B2
:083800000234003414341534C5
:08380800153475340E3414343C
:08381000753415340434203432
:083818004E3416340C34023466
:083820000034153402340234B7
:083828001634043420344E3440
:0838300016340C34023400349C
:0838380015340134013416348B
:083840001034753415340E3408
:08384800143415341534043466
:083850000034003416340C347E
:083858000234003415340A3477
:083860000A3416340434E2348A
:08386800043416340C34023460
:08387000003415340134013469
:08387800163404344C341D34F5
:0838800014340834023414343E
:0838880014340E34133414341F
:08389000143404344C341D34DF
:0838980015340C340234003435
:0838A000143402340234153423
:0838A800043420344E341534C1
:0838B0000C340234003414341E
:0838B80001340134153404341D
:0838C000003400341334083415
:0838C8000534133413340E34EF
:0838D0001234133413340434E4
:0838D8000034003414340C34F8
:0838E0000234003413340A34F1
:0838E8000A34143410340D34CD
:0838F00012340E3411341234BD
:0838F8001234043400340034E2
:083900001334123401341334B6
:0839080013340E3412341334A1
:083910001334043401340034C7
:0839180014340C3402340034B5
:0839200013340A340A34143494
:0839280004344C341D34143446
:083930000C340234003413349E
:0839380002340234143404349B
:083940000034003414340C348F
:0839480002340034133405348D
:08395000053414340434003482
:08395800003413341234013471
:08396000133413341034133446
:0839680013340E341234133441
:083970001334043420344E34FA
:0839780014340C340234003455
:08398000133402340234143444
:083988000434303475341434AA
:083990000C340234003413343E
:08399800053405341434043435
:0839A00020344E3413340C34C2
:0839A800023400341234013432
:0839B000013413340434013426
:0839B80000340D34023409341F
:0839C0000D340D340B34083402
:0839C8000D340D3403340A3400
:0839D0000F340C340234003402
:0839D8000F34103410340D34DB
:0839E0000E340F340D341034D5
:0839E8000434013400341134F1
:0839F0000C34023400341034E1
:0839F8000B340B3411341034C0
:083A00000D3410340E340F34B4
:083A08001034103404340034C2
:083A1000003411340C340234BF
:083A1800003410340B340B34B0
:083A2000113410340A340F3494
:083A28000434003400341034B2
:083A30000C34023400340F34A1
:083A38000B340B341034103480
:083A40000E340F340E340D3476
:083A48000F340F340D34023479
:083A500000340F340C34003483
:083A5800003401340034033492
:083A60000A340E340C34023468
:083A680000340E340F340F345A
:083A70000B340E340E340B344C
:083A78000F3404340034003463
:083A800010340C340234003450
:083A88000F34333433341034E1
:083A9000043401340034103449
:083A98000C34023400340F3439
:083AA0003434343410341034C6
:083AA8000B340F340E340E3410
:083AB0000F340F34043401341B
:083AB800003410340C34023418
:083AC00000340F3433343334B9
:083AC800103404340034003412
:083AD00010340C340234003400
:083AD8000F343434343410348F
:083AE00010340A340E340434E2
:083AE800003400340F340C34EB
:083AF000023400340E343334BB
:083AF80033340F3404340034B0
:083B000000340F340C340234D0
:083B080000340E34343434346F
:083B10000F340D3402340034BF
:083B18000C3430340034003499
:083B20000134003403340A34BF
:083B2800713403340B347234D4
:083B300003340C347334043437
:083B380007340034503404345A
:083B4000033400340834123490
:083B4800513408340834103434
:083B5000083408340C3402347F
:083B580000340834193419345B
:083B6000C0341034483408346D
:083B6800033441340934033435
:083B700040340A3403345134DF
:083B78000B3404340034003466
:083B80000C34123451340C34F2
:083B88000C3404340134003454
:083B90000E34123451340E34DE
:083B98000E3404340234003441
:083BA0000F34123451340F34CC
:083BA8000F340434033400342F
:083BB0001034123451341034BA
:083BB80010340434043400341D
:083BC0001134123451341134A8
:083BC80011340E344634473479
:083BD000123404340034003407
:083BD80013340C3402340034F4
:083BE00012340A340A341334D4
:083BE8000434003400341334EE
:083BF0000C34023400341234DD
:083BF8000934093413340E34C2
:083C00000C34083412340E34B8
:083C08001234093413340434B2
:083C10000234003414340C34BA
:083C18000234003413340B34B4
:083C20000B3414340E3412348D
:083C28000A34133404340134A2
:083C3000003414340C3402349A
:083C3800003413340B340B348B
:083C400014340E340E34083474
:083C480013340E3413340A3466
:083C5000123404340234003484
:083C580014340C340234003472
:083C600012340B340B34143450
:083C68000E3413340934123448
:083C7000043400340034143464
:083C78000C3402340034123454
:083C80000B340B3414340E3434
:083C88000F34083412340E342D
:083C900012340A341334043429
:083C98000034003414340C3434
:083CA0000234003413340B342C
:083CA8000B3414340E34123405
:083CB00009341334043401341B
:083CB800003414340C34023412
:083CC000003413340B340B3403
:083CC8001434103408341334E5
:083CD0000E340F3413340834E4
