:00300002CE
:003040028E
:003080024E
:0030C0020E
:00310002CD
:003140028D
:003180024D
:0031C0020D
:00320002CC
:003240028C
:003280024C
:0032C0020C
:00330002CB
:003340028B
:003380024B
:0033C0020B
:00340002CA
:003440028A
:003480024A
:0034C0020A
:00350002C9
:0035400289
:0035800249
:0035C00209
:00360002C8
:0036400288
:0036800248
:0036C00208
:00370002C7
:0037400287
:0037800247
:0037C00207
:00380002C6
:0038400286
:0038800246
:0038C00206
:00390002C5
:0039400285
:0039800245
:0039C00205
:003A0002C4
:003A400284
:003A800244
:003AC00204
:003B0002C3
:003B400283
:003B800243
:003BC00203
:003C0002C2
:003C400282
:003C800242
:003CC00202
:003D0002C1
:003D400281
:003D800241
:003DC00201
:003E0002C0
:003E400280
:003E800240
:003EC00200
:003F0002BF
:003F40027F
:083000008134A5340A34503478
:08300800441840340034003488
:0830100084180434003400347C
:08301800881810340034003464
:08302000981815340034003447
:08302800AD18973400340034A8
:0830300044193B340134003463
:083038007F1A9E3402340034BB
:083040001D1DC33401340034EE
:08304800E01E2C3400340034BA
:083050000C1F9E340034003413
:08305800FF3FFF3FFF3FFF3F78
:08306000FF3FFF3FFF3FFF3F70
:08306800FF3FFF3FFF3FFF3F68
:08307000FF3FFF3FFF3FFF3F60
:08307800FF3FFF3FFF3FFF3F58
:08308000FF3FFF3FFF3FFF3F50
:083088000434003400347034FC
:08309000043401340034313432
:0830980004340034003432342A
:0830A00004342434F4348034BC
:0830A8000434EE34023400345C
:0830B00004343034753403349C
:0830B800043420344E340534C9
:0830C000043420344E340634C0
:0830C80004340A34003404341E
:0830D0000134C03477340734E9
:0830D8000134C434073407344D
:0830E0000434F3340034083419
:0830E8001234073408340834E7
:0830F0000D34023400340834F1
:0830F8000834023400340434F2
:0831000000340334083450349C
:0831080004340134003450349A
:08311000043416340034C0340D
:0831180004340A34003477345A
:083120000434043400341834B7
:08312800043403340034503478
:083130000434F33400340734C9
:083138000134C034773408347F
:0831400002340734083408349E
:0831480003340834C4340334DD
:0831500018340834033408347C
:083158005034033460340134EB
:0831600003346134023404342D
:0831680000340034703404341B
:08317000003400347134043412
:08317800003400347234043409
:08318000003400347334043400
:0831880000340034303404343B
:08319000003400343234043431
:08319800003400343334043428
:0831A00000340034343404341F
:0831A80000340034203404342B
:0831B000003400342134043422
:0831B800003400342234043419
:0831C000003400342334043410
:0831C8000034003451340434DA
:0831D0000034003477340434AC
:0831D80020344E3405340434A8
:0831E00020344E34063404349F
:0831E800303475340334043463
:0831F0000434003418340434E7
:0831F8000034003407341234E6
:083200000034073407340434E4
:083208003034753403340D3439
:083210000234003407340734D6
:083218000934003405340034D0
:083220000434003400340834CA
:083228001234003408340834AC
:083230000434EE3402340934C9
:083238000C34023400340834A8
:083240000034003409340434A9
:0832480005340034083412348F
:0832500007340834083404348B
:083258000134003409340C3488
:0832600002340034083470341C
:08326800703409340434013410
:08327000003409340C3402346F
:08327800003408343234323412
:08328000093403340734503413
:08328800043400340034073463
:08329000043401340034093458
:083298001234513409340934E9
:0832A00004343C3400340A340C
:0832A800083464340A340A34CE
:0832B0000434003400340B3437
:0832B8000434283400340C3406
:0832C00002340B340C340C3411
:0832C800093460340C340C34AD
:0832D0000F340A340C340C34F5
:0832D8000434323400340A34DE
:0832E000083460340A340A349A
:0832E8000F340C340A340A34DF
:0832F0000E3409340A340A34DB
:0832F8000434003400340934F1
:08330000123451340934093480
:0833080004343C3400340B34A2
:08331000083465340B340B3462
:083318000434003400340C34CD
:083320000434283400340D349C
:0833280002340C340D340D34A5
:08333000093461340D340D3441
:083338000F340B340D340D3489
:083340000434323400340B3474
:08334800083461340B340B342E
:083350000F340D340B340B3473
:083358000E3409340B340B3470
:08336000043400340034093488
:08336800123451340934093418
:0833700010340B340C340E3450
:0833780009340C340C34043458
:083380000034003409340C3460
:08338800023400340C34073458
:08339000073409340C34023447
:0833980000340C340834083441
:0833A0006134043401340034EF
:0833A8000934123451340934D8
:0833B000093410340A340C3416
:0833B8000E3409340C340C340E
:0833C0000434763400340934B2
:0833C8000C34023400340C3413
:0833D0000734073409340C3402
:0833D800023400340C34083407
:0833E0000834603404340234A7
:0833E8000034093412345134A1
:0833F000093409340434EC3403
:0833F80000340C340C340234E3
:083400000034093407340734DD
:083408000C340C3402340034D2
:08341000093408340834C0340B
:083418000434033400340934CC
:0834200012345134093409345F
:083428000434EC3400340C34D0
:083430000C34023400340934AD
:08343800073407340C340C3496
:083440000234003409340834A1
:08344800083419340434043483
:08345000003409341234513438
:08345800093409340434003486
:0834600000340C340C3402347A
:08346800003409340734073475
:083470000C340C34023400346A
:0834780009340834083404345F
:08348000033407342034053445
:08348800083415340F340A3436
:083490000B3407340334073448
:08349800093404349E340034B1
:0834A0000C340C34023400343A
:0834A8000934153415340C340D
:0834B00004340A3400340C342A
:0834B8000C3402340034093425
:0834C000163416340C340434F8
:0834C8000A3400340C340C340A
:0834D000023400340934173402
:0834D80017340C3403341534E1
:0834E0002134033416342234B8
:0834E8000334173423340434CB
:0834F0000634003418340434E2
:0834F8000934003450340234A1
:08350000603401340934043485
:08350800053400340A340834D4
:0835100009340A340A340234C4
:0835180001346034093404346D
:08352000053400340B340834BB
:0835280009340B340B340F349D
:083530000A340B340B340334A0
:083538000B3409340C34023499
:0835400000340934073407349C
:08354800013410340B34093486
:083550000C340234003409348C
:083558000734073460340C3421
:08356000023400340934013487
:083568000134603402346134C7
:0835700002340934043405346F
:0835780000340A340834093460
:083580000A340A34023402345B
:083588006134093404340534F8
:0835900000340C340834093446
:083598000C340C340F340A342A
:0835A0000C340C3403340C342C
:0835A80009340C340234003434
:0835B000093408340834023428
:0835B80010340C3409340C340A
:0835C000023400340934083420
:0835C800083461340C340234B4
:0835D000003409340234023416
:0835D800613404343C3400347A
:0835E000093408346434093495
:0835E8000934043400340034FE
:0835F0000A34043428340034CD
:0835F8000B3402340A340B34D9
:083600000B34093407340B34CC
:083608000B340F3409340B34BC
:083610000B34043432340034A1
:083618000934083407340934B9
:0836200009340F340B340934A6
:083628000934043418340034A5
:083630000A340C3402340034AA
:083638000934073407340A3499
:0836400004343C340034093469
:0836480008346534093409342B
:083650000434003400340A3494
:083658000434283400340B3463
:0836600002340A340B340B3470
:08366800093408340B340B3463
:083670000F3409340B340B3454
:0836780004343234003409343B
:08368000083408340934093450
:083688000F340B34093409343E
:083690000434183400340A343C
:083698000C3402340034093443
:0836A000083408340A34033435
:0836A800C0340934033471340D
:0836B0000A340434053400342F
:0836B8000B340A3407340B3413
:0836C0000B340834083409340E
:0836C8000C340E340C340B34F9
:0836D0000D3403340D340E34F7
:0836D8000434013400340F3406
:0836E0000C34023400340E34F6
:0836E8000A340A340F341034D7
:0836F0000D340E3404340034E3
:0836F80000340F340C340234DD
:0837000000340E340A340A34CF
:083708000F3410340A340B34B5
:08371000043420344E340C3463
:083718000C34023400340B34C0
:08372000053405340C340434B7
:0837280020344E340C340C3443
:08373000023400340B340634AE
:0837380006340C340434303473
:0837400075340C340C34023422
:0837480000340B340334033498
:083750000C3404340034003491
:083758000B34083406340B3475
:083760000B340434E23404349C
:083768000C340B3406340C3460
:083770000C340E340B340C3450
:083778000C3404340034003469
:083780000B34083405340B344E
:083788000B3404344C341D34F1
:083790000D340B3405340D3437
:083798000D340E340B340D3426
:0837A0000D3403340C340B342A
:0837A8000434003400340E3437
:0837B0000C34023400340B3428
:0837B8000A340A340E340F3408
:0837C0000C340D340B341034FD
:0837C8000B340B340C34023405
:0837D00000340B340C340C34FE
:0837D8000A340E340B340A34EC
:0837E0000C3404340034003401
:0837E8000D34123403340D34DA
:0837F0000D340E340C340D34CD
:0837F8000D3404344C341D347F
:083800000E34083405340E34C7
:083808000E340E340D340E34B1
:083810000E3404344C341D3465
:083818000F340C3402340034BB
:083820000E34053405340F34A9
:08382800043420344E340F3447
:083830000C34023400340E34A4
:08383800063406340F34043499
:083840004C341D340E340B342E
:0838480005340E340E340E3479
:083850000D340E340E340C346B
:08385800023400340E340F3479
:083860000F3475340E340E34F0
:0838680075340F3404342034E0
:083870004E3410340C34023414
:0838780000340F34053405345F
:083880001034043420344E34EE
:0838880010340C34023400344A
:083890000F3406340634103435
:08389800103475340F340E34B6
:0838A0000E340F340F34043420
:0838A8000034003410340C342C
:0838B000023400340F340A3425
:0838B8000A3410340434E23438
:0838C000043410340C3402340E
:0838C80000340F34063406340D
:0838D00010340434003400340C
:0838D8000D34083403340D34F3
:0838E0000D340E340C340D34DC
:0838E8000D34043400340034F7
:0838F0000E340C3402340034E4
:0838F8000D340A340A340E34C9
:083900000434003400340E34DD
:083908000C34023400340D34CC
:08391000053405340E340434C3
:08391800003400340E340C34BD
:08392000023400340D340634BA
:0839280006340E3410340A3499
:083930000C340E340B340C348E
:083938000C34043400340034A7
:083940000D34123406340D347D
:083948000D340E340C340D3473
:083950000D340434013400348D
:083958000E340C34023400347B
:083960000D340A340A340E3460
:0839680004344C341D340E340C
:083970000C34023400340D3464
:08397800053405340E3404345B
:0839800020344E340E340C34E7
:08398800023400340D34063452
:0839900006340E340434003447
:0839980000340E340C3402343B
:0839A00000340D34033403343C
:0839A8000E3404340034003435
:0839B0000D34123406340D340D
:0839B8000D3410340D340D3400
:0839C0000E340C340D340D34FB
:0839C800043420344E340E34A7
:0839D0000C34023400340D3404
:0839D800053405340E340434FB
:0839E00020344E340E340C3487
:0839E800023400340D340634F2
:0839F00006340E34043478346F
:0839F80000340E340C340234DB
:083A000000340D3403340334DB
:083A08000E340D3402340034C9
:083A10000A34333400340034A1
:083A18000134003403340A34C8
:083A2000713404340034003459
:083A2800723404340034003450
:083A3000733404340734003440
:083A380050340434033400345F
:083A400008341234513408343B
:083A480008341034083408347E
:083A50000C3402340034083488
:083A580019341934C034103494
:083A60004834083403344134FA
:083A68000934033440340A3430
:083A7000033451340B3404341B
:083A7800003400340C34123458
:083A800051340C340C34043401
:083A8800013400340D34123446
:083A900051340D340D340434EF
:083A9800023400340E34123434
:083AA00051340E340E340434DD
:083AA800033400340F34123422
:083AB00051340F340F340434CB
:083AB800043400341034123410
:083AC0005134103410340E34AF
:083AC800463447341134043484
:083AD0000034003412340C3400
:083AD8000234003411340A34F9
:083AE0000A34123404340034EE
:083AE800003412340C340234E6
:083AF0000034113409340934DB
:083AF80012340E340C340834C2
:083B000011340E3411340934B4
:083B08001234043402340034CD
:083B100013340C3402340034BC
:083B180012340B340B3413349A
:083B20000E3411340A34123492
:083B28000434013400341334AD
:083B30000C340234003412349D
:083B38000B340B3413340E347E
:083B40000D34083412340E3478
:083B480012340A341134043474
:083B50000234003413340C347C
:083B58000234003411340B3477
:083B60000B3413340E3412344F
:083B6800093411340434003467
:083B7000003413340C3402345C
:083B7800003411340B340B344E
:083B800013340E340E34083436
:083B880011340E3411340A342B
:083B9000123404340034003447
:083B980013340C340234003434
:083BA00012340B340B34133412
:083BA8000E341134093412340B
:083BB000043401340034133425
:083BB8000C3402340034123415
:083BC0000B340B3413341034F4
:083BC800083412340E340E34EF
:083BD0001234083404340334FC
:083BD800003413340C340234F4
:083BE000003408340B340B34EF
:083BE80013340E340C341234C6
:083BF0000834043404340034ED
:083BF80013340C3402340034D4
:083C000008340B340B341334BB
:083C08000E340F3412340834AD
:083C10000334193411340E34A1
:083C180008340A3413340434AB
:083C20001E3400341434093491
:083C28001134143414340E347D
:083C300013341434143404347D
:083C380001340034133401349F
:083C40001134133413340C3469
:083C480002340034143411347D
:083C5000113413340E34083462
:083C58000934133404340A346A
:083C600000341434083411345F
:083C6800143414340E3413343B
:083C700014341434043401344F
:083C780000341334023411344E
:083C8000133413340C34023438
:083C880000341434113411342E
:083C9000133410341234133414
:083C98000E340F341334133411
:083CA000043402340034143432
:083CA8000C3402340034133423
:083CB0000B340B34143403340F
:083CB800113419340E341034EC
:083CC000123411340334043402
:083CC80008340E3411340A34F3
:083CD000133404340A340034FB
:083CD8001434093408341434DB
:083CE00014340E3413341434C3
:083CE8001434043401340034EB
:083CF0001334013408341334CD
:083CF80013340C3402340034D3
:083D00001434083408341334B4
:083D08000E34113409341334A8
:083D10000434053400341434BE
:083D180008340834143414349B
:083D20000E3413341434143482
:083D28000434013400341334AB
:083D300002340834133413348B
:083D38000C3402340034143491
:083D4000083408341334033485
:083D4800083404341034123475
:083D500008340E34103408346D
:083D5800083404340034003487
:083D600013340C34023400346A
:083D680008340B340B34133452
:083D700003340B345134043418
:083D780008340034083404345F
:083D8000003400340934123450
:083D880000340934093404344D
:083D9000EE3402340A340C3455
:083D9800023400340934003448
:083DA00000340A340434043439
:083DA80000340A340C3402342B
:083DB000003409340834083422
:083DB8000A34033408345034CE
:083DC00004340334003408341C
:083DC8001234513408340834B0
:083DD0001034083408340C34EF
:083DD800023400340834C03449
:083DE000C0341934043404342A
:083DE800003408341234513498
:083DF0000834083410340834D3
:083DF80008340C3402340034DD
:083E00000834773477340434F0
:083E08000434053400341834C1
:083E1000043403340034503483
:083E180004342434F4340834AE
:083E2000023408348034093437
:083E2800033408348034103427
:083E3000463408341034473415
:083E38000A340F3408340A3487
:083E40000A340434EE340234AC
:083E480008340C34023400348C
:083E50000A3400340034083488
:083E5800083409340034083479
:083E60000434003400340A347C
:083E68000C340234003408346C
:083E7000003400340A340B3465
:083E780009340034083402345F
:083E8000003409340A340C344B
:083E8800023400340834003458
:083E900000340A34083409343F
:083E9800063408340434003440
:083EA00000340A340C34023432
:083EA80000340834063406342E
:083EB0000A340B340934063416
:083EB800083402340634093419
:083EC0000A340C340234003412
:083EC8000834063406340A3404
:083ED0000834093405340834FC
:083ED8000434003400340A3404
:083EE0000C34023400340834F4
:083EE800053405340A340B34E3
:083EF0000934053408340234E2
:083EF800053409340A340C34CE
:083F00000234003408340534DA
:083F080005340A3408340934C1
:083F10000334083404340034CA
:083F180000340A340C340234B9
:083F20000034083403340334BB
:083F28000A340B3409340334A0
:083F30000834023403340934A3
:083F38000A340C340234003499
:083F40000834033403340A3491
:083F480003341834083403347B
:083F500008345034FF3FFF3F2D
:00000001FF
