:00300002CE
:003040028E
:003080024E
:0030C0020E
:00310002CD
:003140028D
:003180024D
:0031C0020D
:00320002CC
:003240028C
:003280024C
:0032C0020C
:00330002CB
:003340028B
:003380024B
:0033C0020B
:00340002CA
:003440028A
:003480024A
:0034C0020A
:00350002C9
:0035400289
:0035800249
:0035C00209
:00360002C8
:0036400288
:0036800248
:0036C00208
:00370002C7
:0037400287
:0037800247
:0037C00207
:00380002C6
:0038400286
:0038800246
:0038C00206
:00390002C5
:0039400285
:0039800245
:0039C00205
:003A0002C4
:003A400284
:003A800244
:003AC00204
:003B0002C3
:003B400283
:003B800243
:003BC00203
:003C0002C2
:003C400282
:003C800242
:003CC00202
:003D0002C1
:003D400281
:003D800241
:003DC00201
:003E0002C0
:003E400280
:003E800240
:003EC00200
:003F0002BF
:003F40027F
:003F80023F
:083000008134A5340A34503478
:0830080044184C34003400347C
:08301000901804340034003470
:08301800941810340034003458
:08302000A4181534003400343B
:08302800B9189734003400349C
:0830300050193B340134003457
:083038008B1A9E3402340034AF
:08304000291DD53401340034D0
:08304800FE1E2C34003400349C
:083050002A1F9D3400340034F6
:08305800FF3FFF3FFF3FFF3F78
:08306000FF3FFF3FFF3FFF3F70
:08306800FF3FFF3FFF3FFF3F68
:08307000FF3FFF3FFF3FFF3F60
:08307800FF3FFF3FFF3FFF3F58
:08308000FF3FFF3FFF3FFF3F50
:083088000434003400347034FC
:08309000043401340034313432
:0830980004340034003432342A
:0830A00004342434F4348034BC
:0830A8000434EE34023400345C
:0830B0000434EE340234033451
:0830B800043430347534063491
:0830C000043420344E340834BE
:0830C800043420344E340934B5
:0830D00004341E340034013405
:0830D80004340A340034023410
:0830E00004340A340034073403
:0830E8000134C03477340A34CE
:0830F0000134C4340A340A342F
:0830F8000434F33400340B34FE
:0831000012340A340B340B34C5
:083108000D34023400340B34D5
:083110000B34023400340434D6
:08311800003403340B34503481
:08312000043401340034503482
:08312800043416340034C034F5
:0831300004340A340034773442
:0831380004340434003418349F
:08314000043403340034503460
:083148000434F33400340A34AE
:083150000134C03477340B3464
:0831580002340A340B340B347D
:0831600003340B34C4340334C2
:0831680018340B3403340B345E
:083170005034033460340434D0
:08317800033461340534043412
:08318000003400347034043403
:083188000034003471340434FA
:083190000034003472340434F1
:083198000034003473340434E8
:0831A000003400343034043423
:0831A800003400343234043419
:0831B000003400343334043410
:0831B800003400343434043407
:0831C000003400342034043413
:0831C80000340034213404340A
:0831D000003400342234043401
:0831D8000034003423340434F8
:0831E0000034003451340434C2
:0831E800003400347734043494
:0831F00020344E34083404348D
:0831F80020344E340934043484
:08320000303475340634043447
:083208000434003418340434CE
:08321000003400340A341234CA
:0832180000340A340A340434C6
:083220003034753406340D341E
:08322800023400340A340A34B8
:083230000934003405340034B8
:083238000434003400340B34AF
:08324000123400340B340B348E
:083248000434EE3402340C34AE
:083250000C34023400340B348D
:08325800003400340C3404348E
:08326000053400340B34123474
:083268000A340B340B3404346A
:08327000013400340C340C346D
:08327800023400340B34703401
:0832800070340C3404340134F5
:0832880000340C340C34023454
:0832900000340B3432343234F7
:083298000C3403340A345034F5
:0832A0000434003400340A3448
:0832A8000434013400340C343D
:0832B000123451340C340C34CB
:0832B80004343C3400340D34F1
:0832C000083464340D340D34B0
:0832C8000434003400340E341C
:0832D0000434283400340F34EB
:0832D80002340E340F340F34F0
:0832E000093460340F340F348F
:0832E8000F340D340F340F34D4
:0832F0000434323400340D34C3
:0832F800083460340D340D347C
:083300000F340F340D340D34BD
:083308000E340C340D340D34B9
:083310000434003400340C34D5
:08331800123451340C340C3462
:0833200004343C3400340E3487
:08332800083465340E340E3444
:083330000434003400340F34B2
:08333800043428340034103481
:0833400002340F341034103484
:08334800093461341034103423
:083350000F340E341034103468
:083358000434323400340E3459
:08336000083461340E340E3410
:083368000F3410340E340E3452
:083370000E340C340E340E344F
:083378000434003400340C346D
:08338000123451340C340C34FA
:0833880010340E340F340E3432
:083390000C340F340F34043437
:08339800003400340C340C3445
:0833A000023400340F340A343A
:0833A8000A340C340C34023429
:0833B00000340F340B340B3420
:0833B8006134043401340034D7
:0833C0000C34123451340C34BA
:0833C8000C3410340D340F34F5
:0833D0000E340C340F340F34ED
:0833D8000434763400340C3497
:0833E0000C34023400340F34F8
:0833E8000A340A340C340C34E1
:0833F000023400340F340B34E9
:0833F8000B346034043402348C
:0834000000340C341234513485
:083408000C340C340434EC34E4
:0834100000340F340C340234C7
:0834180000340C340A340A34BC
:083420000F340C3402340034B7
:083428000C340B340B34C034EA
:083430000434033400340C34B1
:08343800123451340C340C3441
:083440000434EC3400340F34B5
:083448000C34023400340C3492
:083450000A340A340F340C3475
:08345800023400340C340B3483
:083460000B3419340434043468
:0834680000340C34123451341D
:083470000C340C340434003468
:0834780000340F340C3402345F
:0834800000340C340A340A3454
:083488000F340C34023400344F
:083490000C340B340B3407343B
:0834980003340A34203405342A
:0834A0000B3415340F340D3418
:0834A8000E340A3403340A3427
:0834B0000C3404349E34003496
:0834B8000F340C34023400341F
:0834C0000C34153415340F34EF
:0834C80004340A3400340F340F
:0834D0000C34023400340C340A
:0834D800163416340F340434DD
:0834E0000A3400340F340C34EF
:0834E800023400340C341734E7
:0834F00017340F3403341534C6
:0834F8002134033416342234A0
:083500000334173423340434B2
:083508000634003418340434C9
:08351000093400345034023488
:08351800603404340C34043467
:08352000053400340D340834B9
:083528000C340D340D340234A3
:08353000043460340C3404344F
:08353800053400340E340834A0
:083540000C340E340E340F347C
:083548000D340E340E3403347F
:083550000E340C340C3402347B
:0835580000340C340A340A347B
:08356000043410340E340C3465
:083568000C34023400340C3471
:083570000A340A3460340C3403
:08357800023400340C34043469
:083580000434603402346134AC
:0835880005340C340434053451
:0835900000340D3408340C3442
:083598000D340D34023405343A
:0835A00061340C3404340534DD
:0835A80000340F3408340C3428
:0835B0000F340F340F340D3409
:0835B8000F340F3403340F340B
:0835C0000C340C340234003419
:0835C8000C340B340B34053404
:0835D00010340F340C340C34EC
:0835D800023400340C340B3402
:0835E0000B3461340C34023499
:0835E80000340C3405340534F5
:0835F000613404343C34003462
:0835F8000C34083464340C3477
:083600000C34043400340034E2
:083608000D34043428340034B1
:083610000E3402340D340E34B7
:083618000E3409340A340E34AB
:083620000E340F340C340E349B
:083628000E3404343234003486
:083630000C3408340A340C3498
:083638000C340F340E340C3485
:083640000C340434183400348A
:083648000D340C34023400348F
:083650000C340A340A340D3475
:0836580004343C3400340C344E
:08366000083465340C340C340D
:083668000434003400340D3479
:083670000434283400340E3448
:0836780002340D340E340E344F
:0836800009340B340E340E3442
:083688000F340C340E340E3433
:083690000434323400340C3420
:0836980008340B340C340C342F
:0836A0000F340E340C340C341D
:0836A8000434183400340D3421
:0836B0000C34023400340C3428
:0836B8000B340B340D34033414
:0836C000C0340C3403347134F2
:0836C8000D3404340534003414
:0836D0000E340A340A340E34F2
:0836D8000E3408340B340C34ED
:0836E0000F340E340F340E34D8
:0836E8001034033410341134D6
:0836F0000434013400341234EB
:0836F8000C34023400341134DB
:083700000D340D3412341034B5
:083708001034113404340034C4
:08371000003412340C340234C1
:08371800003411340D340D34AE
:08372000123410340D340E3494
:08372800043420344E340F3448
:083730000C34023400340E34A5
:08373800083408340F34043496
:0837400020344E340F340C3428
:08374800023400340E34093490
:0837500009340F340434303455
:0837580075340F340C34023407
:0837600000340E340634063477
:083768000F3404340034003476
:083770000E34083409340E3454
:083778000E340434E234043481
:083780000F340B3409340F343F
:083788000F340E340E340F342F
:083790000F340434003400344E
:083798000E34083408340E342D
:0837A0000E3404344C341D34D6
:0837A80010340B340834103416
:0837B00010340E340E34103405
:0837B800103403340F340E3409
:0837C00004340034003411341C
:0837C8000C34023400340E340D
:0837D0000D340D3411340F34E7
:0837D8000F3410340E341034DC
:0837E0000E340E340C340234E7
:0837E80000340E340F340F34DD
:0837F0000D340E340E340D34CB
:0837F8000F34043400340034E6
:083800001034123406341034B8
:0838080010340E340F341034AB
:08381000103404344C341D3463
:083818001134083408341134A6
:0838200011340E341034113490
:08382800113404344C341D344A
:0838300012340C3402340034A0
:08383800113408340834123485
:08384000043420344E3412342C
:083848000C3402340034113489
:08385000093409341234043478
:083858004C341D3411340B3413
:083860000834113411340E3458
:083868001034113411340C344A
:0838700002340034113412345B
:08387800123475340E341134D2
:083880007534123404342034C5
:083888004E3413340C340234F9
:0838900000341234083408343E
:083898001334043420344E34D3
:0838A00013340C34023400342F
:0838A800123409340934133411
:0838B0001034753412340E349B
:0838B8001134123412340434FF
:0838C0000034003413340C3411
:0838C8000234003412340D3407
:0838D0000D3413340434E2341A
:0838D800043413340C340234F3
:0838E0000034123409340934EC
:0838E8001334043400340034F1
:0838F0001034083406341034D2
:0838F80010340E340F341034BB
:083900001034043400340034DB
:0839080011340C3402340034C8
:0839100010340D340D341134A4
:083918000434003400341134C2
:083920000C34023400341034B1
:083928000834083411340434A2
:083930000034003411340C34A2
:0839380002340034103409349C
:083940000934113410340D3478
:083948000F340E340E340F346D
:083950000F340434003400348C
:0839580010341234093410345C
:0839600010340E340F34103452
:08396800103404340134003472
:0839700011340C340234003460
:0839780010340D340D3411343C
:0839800004344C341D341134F1
:083988000C3402340034103449
:0839900008340834113404343A
:0839980020344E3411340C34CC
:0839A000023400341034093434
:0839A800093411340434003429
:0839B000003411340C34023420
:0839B80000341034063406341B
:0839C00011340434003400341A
:0839C8001034123409341034EC
:0839D0001034103410341034DF
:0839D8000E340F3410341034DA
:0839E000043420344E3411348C
:0839E8000C34023400341034E9
:0839F0000834083411340434DA
:0839F80020344E3411340C346C
:083A00000234003410340934D3
:083A0800093411340434783450
:083A1000003411340C340234BF
:083A18000034103406340634BA
:083A200011340D3402340034AE
:083A28000D3433340034003486
:083A30000134003403340D34AD
:083A3800713404340034003441
:083A4000723404340034003438
:083A4800733404340734003428
:083A5000503404340334003447
:083A58000B34123451340B341D
:083A60000B3410340B340B345D
:083A68000C34023400340B346D
:083A700019341934C03410347C
:083A780048340B3403344134DF
:083A80000C34033440340D3412
:083A8800033451340E34043400
:083A9000003400340F3412343D
:083A980051340F340F340434E3
:083AA00001340034103412342B
:083AA8005134103410340434D1
:083AB000023400341134123419
:083AB8005134113411340434BF
:083AC000033400341234123407
:083AC8005134123412340434AD
:083AD0000434003413341234F5
:083AD8005134133413340E3491
:083AE000463447341434043469
:083AE8000034003415340C34E5
:083AF0000234003414340D34DB
:083AF8000D34153404340034D0
:083B0000003415340C340234CA
:083B0800003414340C340C34B9
:083B100015340E340F340B34A0
:083B180014340E3414340C3493
:083B20001534043402340034B2
:083B280016340C3402340034A1
:083B300015340E340E34163476
:083B38000E3414340D34153471
:083B4000043401340034163492
:083B48000C3402340034153482
:083B50000E340E3416340E345D
:083B580010340B3415340E3457
:083B600015340D341434043453
:083B68000234003416340C3461
:083B70000234003414340E3459
:083B78000E3416340E3415342E
:083B80000C3414340434003449
:083B8800003416340C34023441
:083B9000003414340E340E342D
:083B980016340E3411340B3415
:083BA00014340E3414340D340A
:083BA80015340434003400342C
:083BB00016340C340234003419
:083BB80015340E340E341634EE
:083BC0000E3414340C341534EA
:083BC80004340134003416340A
:083BD0000C34023400341534FA
:083BD8000E340E3416341034D3
:083BE0000B3415340E341134CE
:083BE80015340B3404340334DE
:083BF000003416340C340234D9
:083BF80000340B340E340E34CE
:083C000016340E340F341534A4
:083C08000B34043404340034D1
:083C100016340C3402340034B8
:083C18000B340E340E34163497
:083C20000E34123415340B348C
:083C28000334193414340E3486
:083C30000B340D341634093485
:083C38001434013417340E347A
:083C4000163417341734043464
:083C480001340034163401348C
:083C50001434163416340C3450
:083C5800023400341734143467
:083C6000143416340E340B3449
:083C68000C3416340834143446
:083C7000023417340E3416343F
:083C7800173417340434013441
:083C8000003416340234143440
:083C8800163416340C3402342A
:083C900000341734143414341D
:083C9800163410341534163403
:083CA0000E3412341634163400
:083CA800043402340034173427
:083CB0000C3402340034163418
:083CB8000E340E3417340334FE
:083CC000143419340E341334DE
:083CC8001534143403340734F1
:083CD0000B340E3414340D34E2
:083CD800163404340A340034F0
:083CE000173409340B341734CA
:083CE80017340E3416341734B2
:083CF0001734043401340034E0
:083CF800163401340B341634BC
:083D000016340C3402340034C7
:083D080017340B340B341634A0
:083D10000E3414340C34163497
:083D18000434053400341734B3
:083D200008340B34173417348A
:083D28000E3416341734173471
:083D30000434013400341634A0
:083D380002340B34163416347A
:083D40000C3402340034173486
:083D48000B340B341634033474
:083D50000B3407341034153464
:083D58000B340E3413340B345C
:083D60000B340434003400347C
:083D680016340C34023400345F
:083D70000B340E340E3416343E
:083D780003340E34513404340D
:083D8000003400340B3404345C
:083D8800003400340C34123445
:083D900003340C340C3403343D
:083D98000C340D340434EE3448
:083DA00002340E340C3402342D
:083DA80000340D340334033430
:083DB0000E3404340834003421
:083DB8000B3404340034003424
:083DC0000D34123400340D34FF
:083DC8000D340434EE34023422
:083DD0000E340C3402340034FF
:083DD8000D34003400340E34F8
:083DE0000434043400340E34F5
:083DE8000C34023400340D34E8
:083DF0000B340B340E340334D4
:083DF8000B3450340434033491
:083E000000340B34123451347C
:083E08000B340B3410340B34B1
:083E10000B340C3402340034C1
:083E18000B34C034C03419342E
:083E20000434043400340B34B7
:083E2800123451340B340B3449
:083E300010340B340B340C3488
:083E3800023400340B3477342E
:083E4000773407340434053423
:083E4800003418340434033483
:083E5000003450340434243422
:083E5800F4340B3402340B3486
:083E600080340D3403340B34EF
:083E68008034103446340B34A1
:083E7000103447340E340F3406
:083E78000B340E340E34043447
:083E8000EE3402340B340C3463
:083E8800023400340E34003452
:083E900000340B3408340D343A
:083E980000340B340434003443
:083EA00000340E340C3402342E
:083EA80000340B340034003437
:083EB0000E340B340D34003414
:083EB8000B34023400340D3418
:083EC0000E340C34023400340E
:083EC8000B34003400340E3409
:083ED0000434013400340B340A
:083ED800123451340B340B3499
:083EE00010340B340B341034D4
:083EE80048340E340F340B3492
:083EF0000E340E340434EE34EC
:083EF80002340B340C340234D7
:083F000000340E3403340334D5
:083F08000B3408340D340334BE
:083F10000B34043400340034CA
:083F18000E340C3402340034B5
:083F20000B34033403340E34AA
:083F28000B340D3403340B349B
:083F3000023403340D340E3499
:083F38000C34023400340B3498
:083F4000033403340E3408348D
:083F48000D3406340B3404347F
:083F5000003400340E340C347F
:083F5800023400340B3406347E
:083F600006340E340B340D345D
:083F680006340B340234063468
:083F70000D340E340C34023450
:083F780000340B34063406345A
:083F80000E34033418340B3435
:083F880003340B345034FF3FF9
:00000001FF
